:020000040000FA
:102000002CEF3FF0FFFFFFFFFFFFFFFFFFFFFFFF92
:10201000FFFFFFFFFFFFFFFFFFFFFFFFFFFFFFFFD0
:10202000FFFFFFFFFFFFFFFFFFFFFFFFFFFFFFFFC0
:10203000FFFFFFFFFFFFFFFFFFFFFFFFFFFFFFFFB0
:107E4000FFFFFFFFFFFFFFFFFFFFFFFFFFFFFFFF42
:107E5000FFFFFFFFFFFFFFFF00015DEF3FF03DEC85
:107E60003FF034EC3FF01200720ED36E000ED26E73
:107E7000800E9B6E000EB56E1200000E8D6E000E11
:107E80008C6E000E896E000E8A6E000E8B6E070ED1
:107E9000966EEF0E926E9368C70E946E95680F0102
:107EA0005E69C40E5D6F3F0E5C6F070E5F6F2F0E35
:107EB0005B6F000E856EF18E12002FEC3FF089B8DB
:107EC00064EF3FF067EF3FF0010E68EF3FF0000E08
:107ED000FF0A016E013A89500118EF0B0118896EF3
:107EE000150E026E4B0E016EBE0EE82EFED7012E51
:107EF000FCD7022EFAD700D05FEF3FF000EF10F072
:020000040030CA
:0400000023285F3C16
:0200060081FF78
:020000040020DA
:08000000010A0A0100000000E2
:00000001FF
