:020000040000FA
:102000005FEF3FF0FFFFFFFFFFFFFFFFFFFFFFFF5F
:10201000FFFFFFFFFFFFFFFFFFFFFFFFFFFFFFFFD0
:107EA000FFFFFFFFFFFFFFFFFFFFFFFFFFFFFFFFE2
:107EB000FFFFFFFFFFFFFFFFFFFFFFFFFFFF0001CF
:107EC00062EF3FF09298899889883D0E026EE10E2C
:107ED000016E400EE82EFED7012EFCD7022EFAD7F7
:107EE00089983D0E026EE10E016E400EE82EFED71F
:107EF000012EFCD7022EFAD764EF3FF000EF10F00E
:020000040030CA
:08000000000E1F1EFF8181FFAD
:020000040020DA
:08000000050E030600000000DC
:00000001FF
